{
  "transactions": [
    {
      "hash": "0xf9006301e398e483f3341ffa90bcf8c18bf4c3dfc71fe6e1316cb516d9caadbd",
      "transactionType": "CALL",
      "contractName": null,
      "contractAddress": "0x779877a7b0d9e8603169ddbd7836e478b4624789",
      "function": "transferAndCall(address,uint256,bytes)",
      "arguments": [
        "0x9DdfaCa8183c41ad55329BdeeD9F6A8d53168B1B",
        "3000000000000000000",
        "0xac8694046114aad8be0993dc32abe57246c6b300113fa56afb0312c4e8ff6ff7"
      ],
      "transaction": {
        "from": "0xba00d6b4404abce696529ee6c35413f188e1c795",
        "to": "0x779877a7b0d9e8603169ddbd7836e478b4624789",
        "gas": "0x1a8ee",
        "value": "0x0",
        "input": "0x4000aea00000000000000000000000009ddfaca8183c41ad55329bdeed9f6a8d53168b1b00000000000000000000000000000000000000000000000029a2241af62c000000000000000000000000000000000000000000000000000000000000000000600000000000000000000000000000000000000000000000000000000000000020ac8694046114aad8be0993dc32abe57246c6b300113fa56afb0312c4e8ff6ff7",
        "nonce": "0x1d",
        "chainId": "0xaa36a7"
      },
      "additionalContracts": [],
      "isFixedGasLimit": false
    }
  ],
  "receipts": [
    {
      "status": "0x1",
      "cumulativeGasUsed": "0x12d0719",
      "logs": [
        {
          "address": "0x779877a7b0d9e8603169ddbd7836e478b4624789",
          "topics": [
            "0xddf252ad1be2c89b69c2b068fc378daa952ba7f163c4a11628f55a4df523b3ef",
            "0x000000000000000000000000ba00d6b4404abce696529ee6c35413f188e1c795",
            "0x0000000000000000000000009ddfaca8183c41ad55329bdeed9f6a8d53168b1b"
          ],
          "data": "0x00000000000000000000000000000000000000000000000029a2241af62c0000",
          "blockHash": "0xf0ce6780896b5702f3a38c5b84e507a34488a34e95c45ceb854f85fb851b2baa",
          "blockNumber": "0x8813fd",
          "blockTimestamp": "0x6891f540",
          "transactionHash": "0xf9006301e398e483f3341ffa90bcf8c18bf4c3dfc71fe6e1316cb516d9caadbd",
          "transactionIndex": "0x1a8",
          "logIndex": "0x78",
          "removed": false
        },
        {
          "address": "0x779877a7b0d9e8603169ddbd7836e478b4624789",
          "topics": [
            "0xe19260aff97b920c7df27010903aeb9c8d2be5d310a2c67824cf3f15396e4c16",
            "0x000000000000000000000000ba00d6b4404abce696529ee6c35413f188e1c795",
            "0x0000000000000000000000009ddfaca8183c41ad55329bdeed9f6a8d53168b1b"
          ],
          "data": "0x00000000000000000000000000000000000000000000000029a2241af62c000000000000000000000000000000000000000000000000000000000000000000400000000000000000000000000000000000000000000000000000000000000020ac8694046114aad8be0993dc32abe57246c6b300113fa56afb0312c4e8ff6ff7",
          "blockHash": "0xf0ce6780896b5702f3a38c5b84e507a34488a34e95c45ceb854f85fb851b2baa",
          "blockNumber": "0x8813fd",
          "blockTimestamp": "0x6891f540",
          "transactionHash": "0xf9006301e398e483f3341ffa90bcf8c18bf4c3dfc71fe6e1316cb516d9caadbd",
          "transactionIndex": "0x1a8",
          "logIndex": "0x79",
          "removed": false
        },
        {
          "address": "0x9ddfaca8183c41ad55329bdeed9f6a8d53168b1b",
          "topics": [
            "0x1ced9348ff549fceab2ac57cd3a9de38edaaab274b725ee82c23e8fc8c4eec7a",
            "0xac8694046114aad8be0993dc32abe57246c6b300113fa56afb0312c4e8ff6ff7"
          ],
          "data": "0x000000000000000000000000000000000000000000000000000000000000000000000000000000000000000000000000000000000000000029a2241af62c0000",
          "blockHash": "0xf0ce6780896b5702f3a38c5b84e507a34488a34e95c45ceb854f85fb851b2baa",
          "blockNumber": "0x8813fd",
          "blockTimestamp": "0x6891f540",
          "transactionHash": "0xf9006301e398e483f3341ffa90bcf8c18bf4c3dfc71fe6e1316cb516d9caadbd",
          "transactionIndex": "0x1a8",
          "logIndex": "0x7a",
          "removed": false
        }
      ],
      "logsBloom": "0x00000004000000000008000000000000000000000020000000100000020000000000000000000000000000000000000000000000000000000000000000000000000000000000000000000008000000000000000000000000000020000020000008000000000000000000000000000000000000000000000000000010000040000000000000000000000000010000800000000020000000000000000000000000000000400000000000000000010000000000000000000000000004000000000000000002000000000001000000000000000000000000000100000000000000000010000000000000800000000000000000000000000000000000000000404000",
      "type": "0x2",
      "transactionHash": "0xf9006301e398e483f3341ffa90bcf8c18bf4c3dfc71fe6e1316cb516d9caadbd",
      "transactionIndex": "0x1a8",
      "blockHash": "0xf0ce6780896b5702f3a38c5b84e507a34488a34e95c45ceb854f85fb851b2baa",
      "blockNumber": "0x8813fd",
      "gasUsed": "0x133a5",
      "effectiveGasPrice": "0x937bcb8a",
      "from": "0xba00d6b4404abce696529ee6c35413f188e1c795",
      "to": "0x779877a7b0d9e8603169ddbd7836e478b4624789",
      "contractAddress": null
    }
  ],
  "libraries": [],
  "pending": [],
  "returns": {},
  "timestamp": 1754395959,
  "chain": 11155111,
  "commit": null
}